{
  "contractName": "Dealer",
  "abi": [
    {
      "inputs": [],
      "payable": false,
      "stateMutability": "nonpayable",
      "type": "constructor"
    },
    {
      "anonymous": false,
      "inputs": [
        {
          "indexed": false,
          "internalType": "address",
          "name": "player",
          "type": "address"
        },
        {
          "indexed": false,
          "internalType": "uint256",
          "name": "profit",
          "type": "uint256"
        },
        {
          "indexed": false,
          "internalType": "uint256",
          "name": "dealerBalance",
          "type": "uint256"
        }
      ],
      "name": "PlayerWins",
      "type": "event"
    },
    {
      "constant": true,
      "inputs": [
        {
          "internalType": "address",
          "name": "",
          "type": "address"
        }
      ],
      "name": "playerList",
      "outputs": [
        {
          "internalType": "address",
          "name": "playerAddress",
          "type": "address"
        },
        {
          "internalType": "uint256",
          "name": "playedGames",
          "type": "uint256"
        }
      ],
      "payable": false,
      "stateMutability": "view",
      "type": "function"
    },
    {
      "constant": false,
      "inputs": [
        {
          "internalType": "uint256",
          "name": "_bet",
          "type": "uint256"
        }
      ],
      "name": "addBet",
      "outputs": [],
      "payable": false,
      "stateMutability": "nonpayable",
      "type": "function"
    },
    {
      "constant": false,
      "inputs": [],
      "name": "returnBet",
      "outputs": [],
      "payable": false,
      "stateMutability": "nonpayable",
      "type": "function"
    },
    {
      "constant": false,
      "inputs": [],
      "name": "returnBetWithProfit",
      "outputs": [],
      "payable": false,
      "stateMutability": "nonpayable",
      "type": "function"
    },
    {
      "constant": true,
      "inputs": [],
      "name": "showBalance",
      "outputs": [
        {
          "internalType": "uint256",
          "name": "",
          "type": "uint256"
        }
      ],
      "payable": false,
      "stateMutability": "view",
      "type": "function"
    }
  ],
  "bytecode": "0x608060405234801561001057600080fd5b50600a60008190555033600360006101000a81548173ffffffffffffffffffffffffffffffffffffffff021916908373ffffffffffffffffffffffffffffffffffffffff160217905550610356806100696000396000f3fe608060405234801561001057600080fd5b50600436106100575760003560e01c806307d8b05d1461005c57806362e838ef146100e757806381b2d07b146100f1578063a994dd941461010f578063cdaba78614610119575b600080fd5b61009e6004803603602081101561007257600080fd5b81019080803573ffffffffffffffffffffffffffffffffffffffff169060200190929190505050610147565b604051808373ffffffffffffffffffffffffffffffffffffffff1673ffffffffffffffffffffffffffffffffffffffff1681526020018281526020019250505060405180910390f35b6100ef61018b565b005b6100f961019e565b6040518082815260200191505060405180910390f35b6101176101a7565b005b6101456004803603602081101561012f57600080fd5b81019080803590602001909291905050506101bd565b005b60046020528060005260406000206000915090508060000160009054906101000a900473ffffffffffffffffffffffffffffffffffffffff16908060010154905082565b6001546000808282540392505081905550565b60008054905090565b6002600154026000808282540392505081905550565b600360009054906101000a900473ffffffffffffffffffffffffffffffffffffffff1673ffffffffffffffffffffffffffffffffffffffff163373ffffffffffffffffffffffffffffffffffffffff161461021757600080fd5b61022081610312565b1561030f57806001819055506001546000808282540192505081905550600160026000828254019250508190555060405180604001604052803373ffffffffffffffffffffffffffffffffffffffff168152602001600254815250600460003373ffffffffffffffffffffffffffffffffffffffff1673ffffffffffffffffffffffffffffffffffffffff16815260200190815260200160002060008201518160000160006101000a81548173ffffffffffffffffffffffffffffffffffffffff021916908373ffffffffffffffffffffffffffffffffffffffff160217905550602082015181600101559050505b50565b6000816000541015905091905056fea265627a7a723158204dfd39db1501b3979a42b6ccc1123284f089f75f31b80e5922558cc298d7795964736f6c63430005100032",
  "source": "pragma solidity 0.5.16;\n\ncontract Dealer {\n    uint dealerBalance;\n    uint bet;\n    uint playedGames;\n    address player;\n    \n    constructor() public {\n        dealerBalance = 10;\n         player = msg.sender;\n    }\n    \n    event PlayerWins(\n        address player,\n        uint profit,\n        uint dealerBalance\n        );\n    \n    mapping(address => PlayerData) public playerList;\n    \n    struct PlayerData {\n        address playerAddress;\n        uint playedGames;\n    }\n    \n    modifier onlyPlayer() {\n        require(msg.sender == player);\n        _;\n    }\n    \n    function addBet(uint _bet) public onlyPlayer {\n        if (checkIfBalanceIsEnough(_bet)) {\n            bet = _bet;\n            dealerBalance += bet;\n            playedGames += 1;\n            playerList[msg.sender] = PlayerData(msg.sender, playedGames);\n        }\n    }\n    \n    \n    function returnBet() public {\n        dealerBalance -= bet; \n    }\n    \n    function returnBetWithProfit() public {\n        dealerBalance -= bet * 2; \n    }\n    \n    function showBalance() public view returns (uint) {\n        return dealerBalance; \n    }\n    \n    function checkIfBalanceIsEnough(uint _bet) private view returns (bool) {\n        return dealerBalance >= _bet; \n    }\n}\n\n\ncontract PolarBet is Dealer {\n    uint dealerDiceResult;\n    uint userDiceResult; \n    \n    function getRandomNumber() private view returns (uint8) {\n        return uint8(uint256(keccak256(abi.encodePacked(block.timestamp, block.coinbase, block.difficulty)))%6) + 1;\n    }\n    \n    function rollDice() public  {\n        dealerDiceResult = getRandomNumber();\n        userDiceResult = 6;\n    }\n\n    function getDiceResultOfDealer() public view returns (uint) {\n        return dealerDiceResult;\n    }\n    \n    function getDiceResultOfUser() public view returns (uint) {\n        return userDiceResult;\n    }\n    \n    function winLose() public  {\n        if (dealerDiceResult < userDiceResult) {\n            returnBetWithProfit();\n            emit PlayerWins(player, bet, dealerBalance);\n        }  else {\n            returnBet();\n        }\n        bet = 0;\n    }\n}",
  "sourcePath": "/Users/rowin/Documents/projects/Koios/polarbet/contracts/PolarBet.sol",
  "compiler": {
    "name": "solc",
    "version": "0.5.16+commit.9c3226ce.Emscripten.clang"
  },
  "schemaVersion": "3.3.2",
  "updatedAt": "2020-12-07T14:42:16.446Z",
  "devdoc": {
    "methods": {}
  },
  "userdoc": {
    "methods": {}
  }
}