{
  "contractName": "DealerV4",
  "abi": [
    {
      "anonymous": false,
      "inputs": [
        {
          "indexed": false,
          "internalType": "address",
          "name": "player",
          "type": "address"
        },
        {
          "indexed": false,
          "internalType": "uint256",
          "name": "profit",
          "type": "uint256"
        },
        {
          "indexed": false,
          "internalType": "uint256",
          "name": "dealerBalance",
          "type": "uint256"
        }
      ],
      "name": "PlayerWins",
      "type": "event"
    },
    {
      "anonymous": false,
      "inputs": [
        {
          "indexed": true,
          "internalType": "bytes32",
          "name": "role",
          "type": "bytes32"
        },
        {
          "indexed": true,
          "internalType": "bytes32",
          "name": "previousAdminRole",
          "type": "bytes32"
        },
        {
          "indexed": true,
          "internalType": "bytes32",
          "name": "newAdminRole",
          "type": "bytes32"
        }
      ],
      "name": "RoleAdminChanged",
      "type": "event"
    },
    {
      "anonymous": false,
      "inputs": [
        {
          "indexed": true,
          "internalType": "bytes32",
          "name": "role",
          "type": "bytes32"
        },
        {
          "indexed": true,
          "internalType": "address",
          "name": "account",
          "type": "address"
        },
        {
          "indexed": true,
          "internalType": "address",
          "name": "sender",
          "type": "address"
        }
      ],
      "name": "RoleGranted",
      "type": "event"
    },
    {
      "anonymous": false,
      "inputs": [
        {
          "indexed": true,
          "internalType": "bytes32",
          "name": "role",
          "type": "bytes32"
        },
        {
          "indexed": true,
          "internalType": "address",
          "name": "account",
          "type": "address"
        },
        {
          "indexed": true,
          "internalType": "address",
          "name": "sender",
          "type": "address"
        }
      ],
      "name": "RoleRevoked",
      "type": "event"
    },
    {
      "stateMutability": "payable",
      "type": "fallback"
    },
    {
      "inputs": [],
      "name": "ADMIN_ROLE",
      "outputs": [
        {
          "internalType": "bytes32",
          "name": "",
          "type": "bytes32"
        }
      ],
      "stateMutability": "view",
      "type": "function"
    },
    {
      "inputs": [],
      "name": "DEFAULT_ADMIN_ROLE",
      "outputs": [
        {
          "internalType": "bytes32",
          "name": "",
          "type": "bytes32"
        }
      ],
      "stateMutability": "view",
      "type": "function"
    },
    {
      "inputs": [
        {
          "internalType": "bytes32",
          "name": "_myid",
          "type": "bytes32"
        },
        {
          "internalType": "string",
          "name": "_result",
          "type": "string"
        }
      ],
      "name": "__callback",
      "outputs": [],
      "stateMutability": "nonpayable",
      "type": "function"
    },
    {
      "inputs": [
        {
          "internalType": "bytes32",
          "name": "_myid",
          "type": "bytes32"
        },
        {
          "internalType": "string",
          "name": "_result",
          "type": "string"
        },
        {
          "internalType": "bytes",
          "name": "_proof",
          "type": "bytes"
        }
      ],
      "name": "__callback",
      "outputs": [],
      "stateMutability": "nonpayable",
      "type": "function"
    },
    {
      "inputs": [],
      "name": "dealerBalance",
      "outputs": [
        {
          "internalType": "uint256",
          "name": "",
          "type": "uint256"
        }
      ],
      "stateMutability": "view",
      "type": "function"
    },
    {
      "inputs": [
        {
          "internalType": "bytes32",
          "name": "role",
          "type": "bytes32"
        }
      ],
      "name": "getRoleAdmin",
      "outputs": [
        {
          "internalType": "bytes32",
          "name": "",
          "type": "bytes32"
        }
      ],
      "stateMutability": "view",
      "type": "function"
    },
    {
      "inputs": [
        {
          "internalType": "bytes32",
          "name": "role",
          "type": "bytes32"
        },
        {
          "internalType": "uint256",
          "name": "index",
          "type": "uint256"
        }
      ],
      "name": "getRoleMember",
      "outputs": [
        {
          "internalType": "address",
          "name": "",
          "type": "address"
        }
      ],
      "stateMutability": "view",
      "type": "function"
    },
    {
      "inputs": [
        {
          "internalType": "bytes32",
          "name": "role",
          "type": "bytes32"
        }
      ],
      "name": "getRoleMemberCount",
      "outputs": [
        {
          "internalType": "uint256",
          "name": "",
          "type": "uint256"
        }
      ],
      "stateMutability": "view",
      "type": "function"
    },
    {
      "inputs": [
        {
          "internalType": "bytes32",
          "name": "role",
          "type": "bytes32"
        },
        {
          "internalType": "address",
          "name": "account",
          "type": "address"
        }
      ],
      "name": "grantRole",
      "outputs": [],
      "stateMutability": "nonpayable",
      "type": "function"
    },
    {
      "inputs": [
        {
          "internalType": "bytes32",
          "name": "role",
          "type": "bytes32"
        },
        {
          "internalType": "address",
          "name": "account",
          "type": "address"
        }
      ],
      "name": "hasRole",
      "outputs": [
        {
          "internalType": "bool",
          "name": "",
          "type": "bool"
        }
      ],
      "stateMutability": "view",
      "type": "function"
    },
    {
      "inputs": [
        {
          "internalType": "address",
          "name": "",
          "type": "address"
        }
      ],
      "name": "playerList",
      "outputs": [
        {
          "internalType": "address",
          "name": "playerAddress",
          "type": "address"
        },
        {
          "internalType": "uint256",
          "name": "playedGames",
          "type": "uint256"
        }
      ],
      "stateMutability": "view",
      "type": "function"
    },
    {
      "inputs": [
        {
          "internalType": "bytes32",
          "name": "role",
          "type": "bytes32"
        },
        {
          "internalType": "address",
          "name": "account",
          "type": "address"
        }
      ],
      "name": "renounceRole",
      "outputs": [],
      "stateMutability": "nonpayable",
      "type": "function"
    },
    {
      "inputs": [
        {
          "internalType": "bytes32",
          "name": "role",
          "type": "bytes32"
        },
        {
          "internalType": "address",
          "name": "account",
          "type": "address"
        }
      ],
      "name": "revokeRole",
      "outputs": [],
      "stateMutability": "nonpayable",
      "type": "function"
    },
    {
      "stateMutability": "payable",
      "type": "receive"
    },
    {
      "inputs": [
        {
          "internalType": "address",
          "name": "admin",
          "type": "address"
        }
      ],
      "name": "initialize",
      "outputs": [],
      "stateMutability": "nonpayable",
      "type": "function"
    },
    {
      "inputs": [
        {
          "internalType": "uint256",
          "name": "_bet",
          "type": "uint256"
        }
      ],
      "name": "addBet",
      "outputs": [],
      "stateMutability": "nonpayable",
      "type": "function"
    },
    {
      "inputs": [
        {
          "internalType": "uint256",
          "name": "_bet",
          "type": "uint256"
        }
      ],
      "name": "addBet2",
      "outputs": [],
      "stateMutability": "nonpayable",
      "type": "function"
    },
    {
      "inputs": [],
      "name": "returnBetWithProfit",
      "outputs": [],
      "stateMutability": "nonpayable",
      "type": "function"
    },
    {
      "inputs": [],
      "name": "showBalance",
      "outputs": [
        {
          "internalType": "uint256",
          "name": "",
          "type": "uint256"
        }
      ],
      "stateMutability": "view",
      "type": "function"
    }
  ],
  "bytecode": "0x608060405234801561001057600080fd5b506112a0806100206000396000f3fe60806040526004361061010d5760003560e01c80639010d07c11610095578063c4d66de811610064578063c4d66de81461067b578063ca15c873146106cc578063cdaba7861461071b578063d547741f14610756578063f98be1e0146107b157610114565b80639010d07c1461055957806391d14854146105c8578063a217fddf14610639578063a994dd941461066457610114565b806336568abe116100dc57806336568abe1461031457806338bbfa501461036f5780635e5bad7c146104d857806375b238fc1461050357806381b2d07b1461052e57610114565b806307d8b05d14610116578063248a9ca31461019857806327dc297e146101e75780632f2ff15d146102b957610114565b3661011457005b005b34801561012257600080fd5b506101656004803603602081101561013957600080fd5b81019080803573ffffffffffffffffffffffffffffffffffffffff1690602001909291905050506107ec565b604051808373ffffffffffffffffffffffffffffffffffffffff1681526020018281526020019250505060405180910390f35b3480156101a457600080fd5b506101d1600480360360208110156101bb57600080fd5b8101908080359060200190929190505050610830565b6040518082815260200191505060405180910390f35b3480156101f357600080fd5b506102b76004803603604081101561020a57600080fd5b81019080803590602001909291908035906020019064010000000081111561023157600080fd5b82018360208201111561024357600080fd5b8035906020019184600183028401116401000000008311171561026557600080fd5b91908080601f016020809104026020016040519081016040528093929190818152602001838380828437600081840152601f19601f820116905080830192505050505050509192919290505050610850565b005b3480156102c557600080fd5b50610312600480360360408110156102dc57600080fd5b8101908080359060200190929190803573ffffffffffffffffffffffffffffffffffffffff1690602001909291905050506108aa565b005b34801561032057600080fd5b5061036d6004803603604081101561033757600080fd5b8101908080359060200190929190803573ffffffffffffffffffffffffffffffffffffffff169060200190929190505050610934565b005b34801561037b57600080fd5b506104d66004803603606081101561039257600080fd5b8101908080359060200190929190803590602001906401000000008111156103b957600080fd5b8201836020820111156103cb57600080fd5b803590602001918460018302840111640100000000831117156103ed57600080fd5b91908080601f016020809104026020016040519081016040528093929190818152602001838380828437600081840152601f19601f8201169050808301925050505050505091929192908035906020019064010000000081111561045057600080fd5b82018360208201111561046257600080fd5b8035906020019184600183028401116401000000008311171561048457600080fd5b91908080601f016020809104026020016040519081016040528093929190818152602001838380828437600081840152601f19601f8201169050808301925050505050505091929192905050506109cd565b005b3480156104e457600080fd5b506104ed6109f0565b6040518082815260200191505060405180910390f35b34801561050f57600080fd5b506105186109f6565b6040518082815260200191505060405180910390f35b34801561053a57600080fd5b50610543610a1a565b6040518082815260200191505060405180910390f35b34801561056557600080fd5b5061059c6004803603604081101561057c57600080fd5b810190808035906020019092919080359060200190929190505050610a24565b604051808273ffffffffffffffffffffffffffffffffffffffff16815260200191505060405180910390f35b3480156105d457600080fd5b50610621600480360360408110156105eb57600080fd5b8101908080359060200190929190803573ffffffffffffffffffffffffffffffffffffffff169060200190929190505050610a56565b60405180821515815260200191505060405180910390f35b34801561064557600080fd5b5061064e610a88565b6040518082815260200191505060405180910390f35b34801561067057600080fd5b50610679610a8f565b005b34801561068757600080fd5b506106ca6004803603602081101561069e57600080fd5b81019080803573ffffffffffffffffffffffffffffffffffffffff169060200190929190505050610aa6565b005b3480156106d857600080fd5b50610705600480360360208110156106ef57600080fd5b8101908080359060200190929190505050610b1c565b6040518082815260200191505060405180910390f35b34801561072757600080fd5b506107546004803603602081101561073e57600080fd5b8101908080359060200190929190505050610b43565b005b34801561076257600080fd5b506107af6004803603604081101561077957600080fd5b8101908080359060200190929190803573ffffffffffffffffffffffffffffffffffffffff169060200190929190505050610c93565b005b3480156107bd57600080fd5b506107ea600480360360208110156107d457600080fd5b8101908080359060200190929190505050610d1d565b005b606e6020528060005260406000206000915090508060000160009054906101000a900473ffffffffffffffffffffffffffffffffffffffff16908060010154905082565b600060386000838152602001908152602001600020600201549050919050565b6108a68282600067ffffffffffffffff8111801561086d57600080fd5b506040519080825280601f01601f1916602001820160405280156108a05781602001600182028036833780820191505090505b506109cd565b5050565b6108d160386000848152602001908152602001600020600201546108cc610d9f565b610a56565b610926576040517f08c379a000000000000000000000000000000000000000000000000000000000815260040180806020018281038252602f8152602001806111dd602f913960400191505060405180910390fd5b6109308282610da7565b5050565b61093c610d9f565b73ffffffffffffffffffffffffffffffffffffffff168173ffffffffffffffffffffffffffffffffffffffff16146109bf576040517f08c379a000000000000000000000000000000000000000000000000000000000815260040180806020018281038252602f81526020018061123c602f913960400191505060405180910390fd5b6109c98282610e3b565b5050565b6000801b600360008060001b815260200190815260200160002081905550505050565b606a5481565b7fa49807205ce4d355092ef5a8a18f56e8913cf4a201fbe287825b095693c2177581565b6000606a54905090565b6000610a4e8260386000868152602001908152602001600020600001610ecf90919063ffffffff16565b905092915050565b6000610a808260386000868152602001908152602001600020600001610ee990919063ffffffff16565b905092915050565b6000801b81565b6002606b5402606a60008282540392505081905550565b600a606a8190555033606d60006101000a81548173ffffffffffffffffffffffffffffffffffffffff021916908373ffffffffffffffffffffffffffffffffffffffff160217905550610b197fa49807205ce4d355092ef5a8a18f56e8913cf4a201fbe287825b095693c2177582610f19565b50565b6000610b3c60386000848152602001908152602001600020600001610f27565b9050919050565b606d60009054906101000a900473ffffffffffffffffffffffffffffffffffffffff1673ffffffffffffffffffffffffffffffffffffffff163373ffffffffffffffffffffffffffffffffffffffff1614610b9d57600080fd5b610ba681610f3c565b610baf57600080fd5b80606a600082825401925050819055506001606c6000828254019250508190555060405180604001604052803373ffffffffffffffffffffffffffffffffffffffff168152602001606c54815250606e60003373ffffffffffffffffffffffffffffffffffffffff1673ffffffffffffffffffffffffffffffffffffffff16815260200190815260200160002060008201518160000160006101000a81548173ffffffffffffffffffffffffffffffffffffffff021916908373ffffffffffffffffffffffffffffffffffffffff1602179055506020820151816001015590505050565b610cba6038600084815260200190815260200160002060020154610cb5610d9f565b610a56565b610d0f576040517f08c379a000000000000000000000000000000000000000000000000000000000815260040180806020018281038252603081526020018061120c6030913960400191505060405180910390fd5b610d198282610e3b565b5050565b606d60009054906101000a900473ffffffffffffffffffffffffffffffffffffffff1673ffffffffffffffffffffffffffffffffffffffff163373ffffffffffffffffffffffffffffffffffffffff1614610d7757600080fd5b610d8081610f3c565b610d8957600080fd5b60028102606a6000828254019250508190555050565b600033905090565b610dcf8160386000858152602001908152602001600020600001610f4b90919063ffffffff16565b15610e3757610ddc610d9f565b73ffffffffffffffffffffffffffffffffffffffff168173ffffffffffffffffffffffffffffffffffffffff16837f2f8788117e7eff1d82e926ec794901d17c78024a50270940304540a733656f0d60405160405180910390a45b5050565b610e638160386000858152602001908152602001600020600001610f7b90919063ffffffff16565b15610ecb57610e70610d9f565b73ffffffffffffffffffffffffffffffffffffffff168173ffffffffffffffffffffffffffffffffffffffff16837ff6391f5c32d9c69d2a47ea670b442974b53935d1edc7fd64eb21e047a839171b60405160405180910390a45b5050565b6000610ede8360000183610fab565b60001c905092915050565b6000610f11836000018373ffffffffffffffffffffffffffffffffffffffff1660001b61102e565b905092915050565b610f238282610da7565b5050565b6000610f3582600001611051565b9050919050565b600081606a5410159050919050565b6000610f73836000018373ffffffffffffffffffffffffffffffffffffffff1660001b611062565b905092915050565b6000610fa3836000018373ffffffffffffffffffffffffffffffffffffffff1660001b6110d2565b905092915050565b60008183600001805490501161100c576040517f08c379a00000000000000000000000000000000000000000000000000000000081526004018080602001828103825260228152602001806111bb6022913960400191505060405180910390fd5b82600001828154811061101b57fe5b9060005260206000200154905092915050565b600080836001016000848152602001908152602001600020541415905092915050565b600081600001805490509050919050565b600061106e838361102e565b6110c75782600001829080600181540180825580915050600190039060005260206000200160009091909190915055826000018054905083600101600084815260200190815260200160002081905550600190506110cc565b600090505b92915050565b600080836001016000848152602001908152602001600020549050600081146111ae576000600182039050600060018660000180549050039050600086600001828154811061111d57fe5b906000526020600020015490508087600001848154811061113a57fe5b906000526020600020018190555060018301876001016000838152602001908152602001600020819055508660000180548061117257fe5b600190038181906000526020600020016000905590558660010160008781526020019081526020016000206000905560019450505050506111b4565b60009150505b9291505056fe456e756d657261626c655365743a20696e646578206f7574206f6620626f756e6473416363657373436f6e74726f6c3a2073656e646572206d75737420626520616e2061646d696e20746f206772616e74416363657373436f6e74726f6c3a2073656e646572206d75737420626520616e2061646d696e20746f207265766f6b65416363657373436f6e74726f6c3a2063616e206f6e6c792072656e6f756e636520726f6c657320666f722073656c66a2646970667358221220e273f1c123589f2e6bf1e99e60c38405f69aa7f49f2fd5b983bffd52b6ec355664736f6c634300060c0033",
  "immutableReferences": {},
  "source": "pragma solidity ^0.6.0;\nimport \"./provableAPI.sol\";\nimport \"@openzeppelin/contracts-upgradeable/access/AccessControlUpgradeable.sol\";\n\ncontract DealerV4 is  usingProvable, AccessControlUpgradeable {\n    uint256 public dealerBalance;\n    uint256 bet;\n    uint256 playedGames;\n    address player;\n    bytes32 public constant ADMIN_ROLE = keccak256(\"ADMIN_ROLE\");\n\n    function initialize(address admin) public  {\n        dealerBalance = 10;\n        player = msg.sender;\n        _setupRole(ADMIN_ROLE, admin);\n    }\n\n    fallback() external payable {}\n\n    receive() external payable {}\n\n    event PlayerWins(address player, uint256 profit, uint256 dealerBalance);\n\n    mapping(address => PlayerData) public playerList;\n\n    struct PlayerData {\n        address playerAddress;\n        uint256 playedGames;\n    }\n\n    modifier onlyPlayer() {\n        require(msg.sender == player);\n        _;\n    }\n\n    function addBet(uint256 _bet) public onlyPlayer {\n        require(checkIfBalanceIsEnough(_bet));\n        dealerBalance += _bet;\n        playedGames += 1;\n        playerList[msg.sender] = PlayerData(msg.sender, playedGames);\n    }\n\n    function addBet2(uint256 _bet) public onlyPlayer {\n        require(checkIfBalanceIsEnough(_bet));\n        dealerBalance += _bet * 2;\n    }\n\n    function returnBetWithProfit() public {\n        dealerBalance -= bet * 2;\n    }\n\n    function showBalance() public view returns (uint256) {\n        return dealerBalance;\n    }\n\n    function checkIfBalanceIsEnough(uint256 _bet) private view returns (bool) {\n        return dealerBalance >= _bet;\n    }\n}\n\ncontract PolarBetV4 is DealerV4 {\n    uint256 dealerDiceResult;\n    uint256 userDiceResult;\n    bytes32 public queryId;\n\n    // constructor() public {\n    //     provable_setProof(proofType_Ledger);\n    // }\n\n    function initialize2() public  {\n        provable_setProof(proofType_Ledger);\n    }\n\n    function __callback(\n        bytes32 _queryId,\n        string memory _result,\n        bytes memory _proof\n    ) public override {\n        require(msg.sender == provable_cbAddress());\n        if (\n            provable_randomDS_proofVerify__returnCode(\n                _queryId,\n                _result,\n                _proof\n            ) == 0\n        )\n            userDiceResult =\n                uint8(uint256(keccak256(abi.encodePacked(_result))) % 5) +\n                1;\n        else revert(\"error message\");\n    }\n\n    function getRandom(uint8 nrBytes) public payable {\n        // not supported in remix\n        queryId = provable_newRandomDSQuery(\n            0, // QUERY_EXECUTION_DELAY\n            nrBytes, // NUM_RANDOM_BYTES_REQUESTED\n            200000 // GAS_FOR_CALLBACK\n        );\n    }\n\n    function getRandomNumber() private view returns (uint8) {\n        return\n            uint8(\n                uint256(\n                    keccak256(\n                        abi.encodePacked(\n                            block.timestamp,\n                            block.coinbase,\n                            block.difficulty\n                        )\n                    )\n                ) % 6\n            ) + 1;\n    }\n\n    function rollDice() public payable {\n        dealerDiceResult = getRandomNumber();\n        getRandom(1);\n    }\n\n    function getDiceResultOfDealer() public view returns (uint256) {\n        return dealerDiceResult;\n    }\n\n    function getDiceResultOfUser() public view returns (uint256) {\n        return userDiceResult;\n    }\n\n    function payOut() public {\n        require(hasRole(ADMIN_ROLE, msg.sender), \"Caller is not an admin\");\n        if (dealerDiceResult < userDiceResult) {\n            returnBetWithProfit();\n            emit PlayerWins(player, bet, dealerBalance);\n        }\n        resetBetAndDiceResults();\n    }\n\n    function resetBetAndDiceResults() private {\n        dealerDiceResult = 0;\n        userDiceResult = 0;\n        bet = 0;\n    }\n}\n",
  "sourcePath": "/Users/rowin/Documents/projects/Koios/polarbet/contracts/PolarBetV4.sol",
  "compiler": {
    "name": "solc",
    "version": "0.6.12+commit.27d51765.Emscripten.clang"
  },
  "schemaVersion": "3.3.3",
  "updatedAt": "2021-01-20T16:29:46.453Z",
  "devdoc": {
    "kind": "dev",
    "methods": {
      "__callback(bytes32,string)": {
        "details": "The following `__callback` functions are just placeholders ideally      meant to be defined in child contract when proofs are used.      The function bodies simply silence compiler warnings."
      },
      "getRoleAdmin(bytes32)": {
        "details": "Returns the admin role that controls `role`. See {grantRole} and {revokeRole}. To change a role's admin, use {_setRoleAdmin}."
      },
      "getRoleMember(bytes32,uint256)": {
        "details": "Returns one of the accounts that have `role`. `index` must be a value between 0 and {getRoleMemberCount}, non-inclusive. Role bearers are not sorted in any particular way, and their ordering may change at any point. WARNING: When using {getRoleMember} and {getRoleMemberCount}, make sure you perform all queries on the same block. See the following https://forum.openzeppelin.com/t/iterating-over-elements-on-enumerableset-in-openzeppelin-contracts/2296[forum post] for more information."
      },
      "getRoleMemberCount(bytes32)": {
        "details": "Returns the number of accounts that have `role`. Can be used together with {getRoleMember} to enumerate all bearers of a role."
      },
      "grantRole(bytes32,address)": {
        "details": "Grants `role` to `account`. If `account` had not been already granted `role`, emits a {RoleGranted} event. Requirements: - the caller must have ``role``'s admin role."
      },
      "hasRole(bytes32,address)": {
        "details": "Returns `true` if `account` has been granted `role`."
      },
      "renounceRole(bytes32,address)": {
        "details": "Revokes `role` from the calling account. Roles are often managed via {grantRole} and {revokeRole}: this function's purpose is to provide a mechanism for accounts to lose their privileges if they are compromised (such as when a trusted device is misplaced). If the calling account had been granted `role`, emits a {RoleRevoked} event. Requirements: - the caller must be `account`."
      },
      "revokeRole(bytes32,address)": {
        "details": "Revokes `role` from `account`. If `account` had been granted `role`, emits a {RoleRevoked} event. Requirements: - the caller must have ``role``'s admin role."
      }
    },
    "version": 1
  },
  "userdoc": {
    "kind": "user",
    "methods": {},
    "version": 1
  }
}