{
  "contractName": "PolarBetV4",
  "abi": [
    {
      "anonymous": false,
      "inputs": [
        {
          "indexed": false,
          "internalType": "address",
          "name": "player",
          "type": "address"
        },
        {
          "indexed": false,
          "internalType": "uint256",
          "name": "profit",
          "type": "uint256"
        },
        {
          "indexed": false,
          "internalType": "uint256",
          "name": "dealerBalance",
          "type": "uint256"
        }
      ],
      "name": "PlayerWins",
      "type": "event"
    },
    {
      "anonymous": false,
      "inputs": [
        {
          "indexed": true,
          "internalType": "bytes32",
          "name": "role",
          "type": "bytes32"
        },
        {
          "indexed": true,
          "internalType": "bytes32",
          "name": "previousAdminRole",
          "type": "bytes32"
        },
        {
          "indexed": true,
          "internalType": "bytes32",
          "name": "newAdminRole",
          "type": "bytes32"
        }
      ],
      "name": "RoleAdminChanged",
      "type": "event"
    },
    {
      "anonymous": false,
      "inputs": [
        {
          "indexed": true,
          "internalType": "bytes32",
          "name": "role",
          "type": "bytes32"
        },
        {
          "indexed": true,
          "internalType": "address",
          "name": "account",
          "type": "address"
        },
        {
          "indexed": true,
          "internalType": "address",
          "name": "sender",
          "type": "address"
        }
      ],
      "name": "RoleGranted",
      "type": "event"
    },
    {
      "anonymous": false,
      "inputs": [
        {
          "indexed": true,
          "internalType": "bytes32",
          "name": "role",
          "type": "bytes32"
        },
        {
          "indexed": true,
          "internalType": "address",
          "name": "account",
          "type": "address"
        },
        {
          "indexed": true,
          "internalType": "address",
          "name": "sender",
          "type": "address"
        }
      ],
      "name": "RoleRevoked",
      "type": "event"
    },
    {
      "stateMutability": "payable",
      "type": "fallback"
    },
    {
      "inputs": [],
      "name": "ADMIN_ROLE",
      "outputs": [
        {
          "internalType": "bytes32",
          "name": "",
          "type": "bytes32"
        }
      ],
      "stateMutability": "view",
      "type": "function"
    },
    {
      "inputs": [],
      "name": "DEFAULT_ADMIN_ROLE",
      "outputs": [
        {
          "internalType": "bytes32",
          "name": "",
          "type": "bytes32"
        }
      ],
      "stateMutability": "view",
      "type": "function"
    },
    {
      "inputs": [
        {
          "internalType": "uint256",
          "name": "_bet",
          "type": "uint256"
        }
      ],
      "name": "addBet",
      "outputs": [],
      "stateMutability": "nonpayable",
      "type": "function"
    },
    {
      "inputs": [
        {
          "internalType": "uint256",
          "name": "_bet",
          "type": "uint256"
        }
      ],
      "name": "addBet2",
      "outputs": [],
      "stateMutability": "nonpayable",
      "type": "function"
    },
    {
      "inputs": [],
      "name": "dealerBalance",
      "outputs": [
        {
          "internalType": "uint256",
          "name": "",
          "type": "uint256"
        }
      ],
      "stateMutability": "view",
      "type": "function"
    },
    {
      "inputs": [
        {
          "internalType": "bytes32",
          "name": "role",
          "type": "bytes32"
        }
      ],
      "name": "getRoleAdmin",
      "outputs": [
        {
          "internalType": "bytes32",
          "name": "",
          "type": "bytes32"
        }
      ],
      "stateMutability": "view",
      "type": "function"
    },
    {
      "inputs": [
        {
          "internalType": "bytes32",
          "name": "role",
          "type": "bytes32"
        },
        {
          "internalType": "uint256",
          "name": "index",
          "type": "uint256"
        }
      ],
      "name": "getRoleMember",
      "outputs": [
        {
          "internalType": "address",
          "name": "",
          "type": "address"
        }
      ],
      "stateMutability": "view",
      "type": "function"
    },
    {
      "inputs": [
        {
          "internalType": "bytes32",
          "name": "role",
          "type": "bytes32"
        }
      ],
      "name": "getRoleMemberCount",
      "outputs": [
        {
          "internalType": "uint256",
          "name": "",
          "type": "uint256"
        }
      ],
      "stateMutability": "view",
      "type": "function"
    },
    {
      "inputs": [
        {
          "internalType": "bytes32",
          "name": "role",
          "type": "bytes32"
        },
        {
          "internalType": "address",
          "name": "account",
          "type": "address"
        }
      ],
      "name": "grantRole",
      "outputs": [],
      "stateMutability": "nonpayable",
      "type": "function"
    },
    {
      "inputs": [
        {
          "internalType": "bytes32",
          "name": "role",
          "type": "bytes32"
        },
        {
          "internalType": "address",
          "name": "account",
          "type": "address"
        }
      ],
      "name": "hasRole",
      "outputs": [
        {
          "internalType": "bool",
          "name": "",
          "type": "bool"
        }
      ],
      "stateMutability": "view",
      "type": "function"
    },
    {
      "inputs": [
        {
          "internalType": "address",
          "name": "admin",
          "type": "address"
        }
      ],
      "name": "initialize",
      "outputs": [],
      "stateMutability": "nonpayable",
      "type": "function"
    },
    {
      "inputs": [
        {
          "internalType": "address",
          "name": "",
          "type": "address"
        }
      ],
      "name": "playerList",
      "outputs": [
        {
          "internalType": "address",
          "name": "playerAddress",
          "type": "address"
        },
        {
          "internalType": "uint256",
          "name": "playedGames",
          "type": "uint256"
        }
      ],
      "stateMutability": "view",
      "type": "function"
    },
    {
      "inputs": [],
      "name": "queryId",
      "outputs": [
        {
          "internalType": "bytes32",
          "name": "",
          "type": "bytes32"
        }
      ],
      "stateMutability": "view",
      "type": "function"
    },
    {
      "inputs": [
        {
          "internalType": "bytes32",
          "name": "role",
          "type": "bytes32"
        },
        {
          "internalType": "address",
          "name": "account",
          "type": "address"
        }
      ],
      "name": "renounceRole",
      "outputs": [],
      "stateMutability": "nonpayable",
      "type": "function"
    },
    {
      "inputs": [],
      "name": "returnBetWithProfit",
      "outputs": [],
      "stateMutability": "nonpayable",
      "type": "function"
    },
    {
      "inputs": [
        {
          "internalType": "bytes32",
          "name": "role",
          "type": "bytes32"
        },
        {
          "internalType": "address",
          "name": "account",
          "type": "address"
        }
      ],
      "name": "revokeRole",
      "outputs": [],
      "stateMutability": "nonpayable",
      "type": "function"
    },
    {
      "inputs": [],
      "name": "showBalance",
      "outputs": [
        {
          "internalType": "uint256",
          "name": "",
          "type": "uint256"
        }
      ],
      "stateMutability": "view",
      "type": "function"
    },
    {
      "stateMutability": "payable",
      "type": "receive"
    },
    {
      "inputs": [],
      "name": "initialize2",
      "outputs": [],
      "stateMutability": "nonpayable",
      "type": "function"
    },
    {
      "inputs": [
        {
          "internalType": "bytes32",
          "name": "_myid",
          "type": "bytes32"
        },
        {
          "internalType": "string",
          "name": "_result",
          "type": "string"
        }
      ],
      "name": "__callback",
      "outputs": [],
      "stateMutability": "nonpayable",
      "type": "function"
    },
    {
      "inputs": [
        {
          "internalType": "bytes32",
          "name": "_queryId",
          "type": "bytes32"
        },
        {
          "internalType": "string",
          "name": "_result",
          "type": "string"
        },
        {
          "internalType": "bytes",
          "name": "_proof",
          "type": "bytes"
        }
      ],
      "name": "__callback",
      "outputs": [],
      "stateMutability": "nonpayable",
      "type": "function"
    },
    {
      "inputs": [
        {
          "internalType": "uint8",
          "name": "nrBytes",
          "type": "uint8"
        }
      ],
      "name": "getRandom",
      "outputs": [],
      "stateMutability": "payable",
      "type": "function"
    },
    {
      "inputs": [],
      "name": "rollDice",
      "outputs": [],
      "stateMutability": "payable",
      "type": "function"
    },
    {
      "inputs": [],
      "name": "getDiceResultOfDealer",
      "outputs": [
        {
          "internalType": "uint256",
          "name": "",
          "type": "uint256"
        }
      ],
      "stateMutability": "view",
      "type": "function"
    },
    {
      "inputs": [],
      "name": "getDiceResultOfUser",
      "outputs": [
        {
          "internalType": "uint256",
          "name": "",
          "type": "uint256"
        }
      ],
      "stateMutability": "view",
      "type": "function"
    },
    {
      "inputs": [],
      "name": "payOut",
      "outputs": [],
      "stateMutability": "nonpayable",
      "type": "function"
    }
  ],
  "bytecode": "0x608060405234801561001057600080fd5b50614b26806100206000396000f3fe60806040526004361061016a5760003560e01c806381b2d07b116100d1578063c20524031161008a578063cdaba78611610064578063cdaba78614610837578063d547741f14610872578063f637d880146108cd578063f98be1e0146108f857610171565b8063c205240314610780578063c4d66de814610797578063ca15c873146107e857610171565b806381b2d07b14610629578063837e7cc6146106545780639010d07c1461065e57806391d14854146106cd578063a217fddf1461073e578063a994dd941461076957610171565b80633f1be4d4116101235780633f1be4d414610535578063472abf6814610560578063485e7475146105775780635e5bad7c146105a257806375b238fc146105cd5780637e4a6a5e146105f857610171565b806307d8b05d14610173578063248a9ca3146101f557806327dc297e146102445780632f2ff15d1461031657806336568abe1461037157806338bbfa50146103cc57610171565b3661017157005b005b34801561017f57600080fd5b506101c26004803603602081101561019657600080fd5b81019080803573ffffffffffffffffffffffffffffffffffffffff169060200190929190505050610933565b604051808373ffffffffffffffffffffffffffffffffffffffff1681526020018281526020019250505060405180910390f35b34801561020157600080fd5b5061022e6004803603602081101561021857600080fd5b8101908080359060200190929190505050610977565b6040518082815260200191505060405180910390f35b34801561025057600080fd5b506103146004803603604081101561026757600080fd5b81019080803590602001909291908035906020019064010000000081111561028e57600080fd5b8201836020820111156102a057600080fd5b803590602001918460018302840111640100000000831117156102c257600080fd5b91908080601f016020809104026020016040519081016040528093929190818152602001838380828437600081840152601f19601f820116905080830192505050505050509192919290505050610997565b005b34801561032257600080fd5b5061036f6004803603604081101561033957600080fd5b8101908080359060200190929190803573ffffffffffffffffffffffffffffffffffffffff1690602001909291905050506109f1565b005b34801561037d57600080fd5b506103ca6004803603604081101561039457600080fd5b8101908080359060200190929190803573ffffffffffffffffffffffffffffffffffffffff169060200190929190505050610a7b565b005b3480156103d857600080fd5b50610533600480360360608110156103ef57600080fd5b81019080803590602001909291908035906020019064010000000081111561041657600080fd5b82018360208201111561042857600080fd5b8035906020019184600183028401116401000000008311171561044a57600080fd5b91908080601f016020809104026020016040519081016040528093929190818152602001838380828437600081840152601f19601f820116905080830192505050505050509192919290803590602001906401000000008111156104ad57600080fd5b8201836020820111156104bf57600080fd5b803590602001918460018302840111640100000000831117156104e157600080fd5b91908080601f016020809104026020016040519081016040528093929190818152602001838380828437600081840152601f19601f820116905080830192505050505050509192919290505050610b14565b005b34801561054157600080fd5b5061054a610c6c565b6040518082815260200191505060405180910390f35b34801561056c57600080fd5b50610575610c72565b005b34801561058357600080fd5b5061058c610c81565b6040518082815260200191505060405180910390f35b3480156105ae57600080fd5b506105b7610c8b565b6040518082815260200191505060405180910390f35b3480156105d957600080fd5b506105e2610c91565b6040518082815260200191505060405180910390f35b6106276004803603602081101561060e57600080fd5b81019080803560ff169060200190929190505050610cb5565b005b34801561063557600080fd5b5061063e610cd0565b6040518082815260200191505060405180910390f35b61065c610cda565b005b34801561066a57600080fd5b506106a16004803603604081101561068157600080fd5b810190808035906020019092919080359060200190929190505050610cf7565b604051808273ffffffffffffffffffffffffffffffffffffffff16815260200191505060405180910390f35b3480156106d957600080fd5b50610726600480360360408110156106f057600080fd5b8101908080359060200190929190803573ffffffffffffffffffffffffffffffffffffffff169060200190929190505050610d29565b60405180821515815260200191505060405180910390f35b34801561074a57600080fd5b50610753610d5b565b6040518082815260200191505060405180910390f35b34801561077557600080fd5b5061077e610d62565b005b34801561078c57600080fd5b50610795610d79565b005b3480156107a357600080fd5b506107e6600480360360208110156107ba57600080fd5b81019080803573ffffffffffffffffffffffffffffffffffffffff169060200190929190505050610eb7565b005b3480156107f457600080fd5b506108216004803603602081101561080b57600080fd5b8101908080359060200190929190505050610f2d565b6040518082815260200191505060405180910390f35b34801561084357600080fd5b506108706004803603602081101561085a57600080fd5b8101908080359060200190929190505050610f54565b005b34801561087e57600080fd5b506108cb6004803603604081101561089557600080fd5b8101908080359060200190929190803573ffffffffffffffffffffffffffffffffffffffff1690602001909291905050506110a4565b005b3480156108d957600080fd5b506108e261112e565b6040518082815260200191505060405180910390f35b34801561090457600080fd5b506109316004803603602081101561091b57600080fd5b8101908080359060200190929190505050611138565b005b606e6020528060005260406000206000915090508060000160009054906101000a900473ffffffffffffffffffffffffffffffffffffffff16908060010154905082565b600060386000838152602001908152602001600020600201549050919050565b6109ed8282600067ffffffffffffffff811180156109b457600080fd5b506040519080825280601f01601f1916602001820160405280156109e75781602001600182028036833780820191505090505b50610b14565b5050565b610a186038600084815260200190815260200160002060020154610a136111ba565b610d29565b610a6d576040517f08c379a000000000000000000000000000000000000000000000000000000000815260040180806020018281038252602f815260200180614a23602f913960400191505060405180910390fd5b610a7782826111c2565b5050565b610a836111ba565b73ffffffffffffffffffffffffffffffffffffffff168173ffffffffffffffffffffffffffffffffffffffff1614610b06576040517f08c379a000000000000000000000000000000000000000000000000000000000815260040180806020018281038252602f815260200180614ac2602f913960400191505060405180910390fd5b610b108282611256565b5050565b610b1c6112ea565b73ffffffffffffffffffffffffffffffffffffffff163373ffffffffffffffffffffffffffffffffffffffff1614610b5357600080fd5b6000610b60848484611607565b60ff161415610bf95760016005836040516020018082805190602001908083835b60208310610ba45780518252602082019150602081019050602083039250610b81565b6001836020036101000a0380198251168184511680821785525050505050509050019150506040516020818303038152906040528051906020012060001c81610be957fe5b060160ff16607081905550610c67565b6040517f08c379a000000000000000000000000000000000000000000000000000000000815260040180806020018281038252600d8152602001807f6572726f72206d6573736167650000000000000000000000000000000000000081525060200191505060405180910390fd5b505050565b60715481565b610c7f603060f81b611737565b565b6000606f54905090565b606a5481565b7fa49807205ce4d355092ef5a8a18f56e8913cf4a201fbe287825b095693c2177581565b610cc760008260ff1662030d40611a5b565b60718190555050565b6000606a54905090565b610ce2612080565b60ff16606f81905550610cf56001610cb5565b565b6000610d2182603860008681526020019081526020016000206000016120e790919063ffffffff16565b905092915050565b6000610d53826038600086815260200190815260200160002060000161210190919063ffffffff16565b905092915050565b6000801b81565b6002606b5402606a60008282540392505081905550565b610da37fa49807205ce4d355092ef5a8a18f56e8913cf4a201fbe287825b095693c2177533610d29565b610e15576040517f08c379a00000000000000000000000000000000000000000000000000000000081526004018080602001828103825260168152602001807f43616c6c6572206973206e6f7420616e2061646d696e0000000000000000000081525060200191505060405180910390fd5b607054606f541015610ead57610e29610d62565b7f1346ef089488831ddd390d36e94e4a0341136af2f1357d621b103c39c4523e73606d60009054906101000a900473ffffffffffffffffffffffffffffffffffffffff16606b54606a54604051808473ffffffffffffffffffffffffffffffffffffffff168152602001838152602001828152602001935050505060405180910390a15b610eb5612131565b565b600a606a8190555033606d60006101000a81548173ffffffffffffffffffffffffffffffffffffffff021916908373ffffffffffffffffffffffffffffffffffffffff160217905550610f2a7fa49807205ce4d355092ef5a8a18f56e8913cf4a201fbe287825b095693c217758261214b565b50565b6000610f4d60386000848152602001908152602001600020600001612159565b9050919050565b606d60009054906101000a900473ffffffffffffffffffffffffffffffffffffffff1673ffffffffffffffffffffffffffffffffffffffff163373ffffffffffffffffffffffffffffffffffffffff1614610fae57600080fd5b610fb78161216e565b610fc057600080fd5b80606a600082825401925050819055506001606c6000828254019250508190555060405180604001604052803373ffffffffffffffffffffffffffffffffffffffff168152602001606c54815250606e60003373ffffffffffffffffffffffffffffffffffffffff1673ffffffffffffffffffffffffffffffffffffffff16815260200190815260200160002060008201518160000160006101000a81548173ffffffffffffffffffffffffffffffffffffffff021916908373ffffffffffffffffffffffffffffffffffffffff1602179055506020820151816001015590505050565b6110cb60386000848152602001908152602001600020600201546110c66111ba565b610d29565b611120576040517f08c379a0000000000000000000000000000000000000000000000000000000008152600401808060200182810382526030815260200180614a526030913960400191505060405180910390fd5b61112a8282611256565b5050565b6000607054905090565b606d60009054906101000a900473ffffffffffffffffffffffffffffffffffffffff1673ffffffffffffffffffffffffffffffffffffffff163373ffffffffffffffffffffffffffffffffffffffff161461119257600080fd5b61119b8161216e565b6111a457600080fd5b60028102606a6000828254019250508190555050565b600033905090565b6111ea816038600085815260200190815260200160002060000161217d90919063ffffffff16565b15611252576111f76111ba565b73ffffffffffffffffffffffffffffffffffffffff168173ffffffffffffffffffffffffffffffffffffffff16837f2f8788117e7eff1d82e926ec794901d17c78024a50270940304540a733656f0d60405160405180910390a45b5050565b61127e81603860008581526020019081526020016000206000016121ad90919063ffffffff16565b156112e65761128b6111ba565b73ffffffffffffffffffffffffffffffffffffffff168173ffffffffffffffffffffffffffffffffffffffff16837ff6391f5c32d9c69d2a47ea670b442974b53935d1edc7fd64eb21e047a839171b60405160405180910390a45b5050565b60008073ffffffffffffffffffffffffffffffffffffffff16600160009054906101000a900473ffffffffffffffffffffffffffffffffffffffff1673ffffffffffffffffffffffffffffffffffffffff16148061137257506000611370600160009054906101000a900473ffffffffffffffffffffffffffffffffffffffff166121dd565b145b156113835761138160006121e8565b505b600160009054906101000a900473ffffffffffffffffffffffffffffffffffffffff1673ffffffffffffffffffffffffffffffffffffffff166338cc48316040518163ffffffff1660e01b8152600401602060405180830381600087803b1580156113ed57600080fd5b505af1158015611401573d6000803e3d6000fd5b505050506040513d602081101561141757600080fd5b810190808051906020019092919050505073ffffffffffffffffffffffffffffffffffffffff1660008054906101000a900473ffffffffffffffffffffffffffffffffffffffff1673ffffffffffffffffffffffffffffffffffffffff161461155f57600160009054906101000a900473ffffffffffffffffffffffffffffffffffffffff1673ffffffffffffffffffffffffffffffffffffffff166338cc48316040518163ffffffff1660e01b8152600401602060405180830381600087803b1580156114e457600080fd5b505af11580156114f8573d6000803e3d6000fd5b505050506040513d602081101561150e57600080fd5b81019080805190602001909291905050506000806101000a81548173ffffffffffffffffffffffffffffffffffffffff021916908373ffffffffffffffffffffffffffffffffffffffff1602179055505b60008054906101000a900473ffffffffffffffffffffffffffffffffffffffff1673ffffffffffffffffffffffffffffffffffffffff1663c281d19e6040518163ffffffff1660e01b8152600401602060405180830381600087803b1580156115c757600080fd5b505af11580156115db573d6000803e3d6000fd5b505050506040513d60208110156115f157600080fd5b8101908080519060200190929190505050905090565b60007f4c000000000000000000000000000000000000000000000000000000000000008260008151811061163757fe5b602001015160f81c60f81b7effffffffffffffffffffffffffffffffffffffffffffffffffffffffffffff19161415806116ca57507f50000000000000000000000000000000000000000000000000000000000000008260018151811061169a57fe5b602001015160f81c60f81b7effffffffffffffffffffffffffffffffffffffffffffffffffffffffffffff191614155b806116f65750600160ff16826002815181106116e257fe5b602001015160f81c60f81b60f81c60ff1614155b156117045760019050611730565b60006117198386866117146121f9565b61229b565b90508061172a576002915050611730565b60009150505b9392505050565b600073ffffffffffffffffffffffffffffffffffffffff16600160009054906101000a900473ffffffffffffffffffffffffffffffffffffffff1673ffffffffffffffffffffffffffffffffffffffff1614806117be575060006117bc600160009054906101000a900473ffffffffffffffffffffffffffffffffffffffff166121dd565b145b156117cf576117cd60006121e8565b505b600160009054906101000a900473ffffffffffffffffffffffffffffffffffffffff1673ffffffffffffffffffffffffffffffffffffffff166338cc48316040518163ffffffff1660e01b8152600401602060405180830381600087803b15801561183957600080fd5b505af115801561184d573d6000803e3d6000fd5b505050506040513d602081101561186357600080fd5b810190808051906020019092919050505073ffffffffffffffffffffffffffffffffffffffff1660008054906101000a900473ffffffffffffffffffffffffffffffffffffffff1673ffffffffffffffffffffffffffffffffffffffff16146119ab57600160009054906101000a900473ffffffffffffffffffffffffffffffffffffffff1673ffffffffffffffffffffffffffffffffffffffff166338cc48316040518163ffffffff1660e01b8152600401602060405180830381600087803b15801561193057600080fd5b505af1158015611944573d6000803e3d6000fd5b505050506040513d602081101561195a57600080fd5b81019080805190602001909291905050506000806101000a81548173ffffffffffffffffffffffffffffffffffffffff021916908373ffffffffffffffffffffffffffffffffffffffff1602179055505b60008054906101000a900473ffffffffffffffffffffffffffffffffffffffff1673ffffffffffffffffffffffffffffffffffffffff1663688dcfd7826040518263ffffffff1660e01b815260040180827effffffffffffffffffffffffffffffffffffffffffffffffffffffffffffff19168152602001915050600060405180830381600087803b158015611a4057600080fd5b505af1158015611a54573d6000803e3d6000fd5b5050505050565b60008083118015611a6d575060208311155b611a7657600080fd5b600a840293506060600167ffffffffffffffff81118015611a9657600080fd5b506040519080825280601f01601f191660200182016040528015611ac95781602001600182028036833780820191505090505b5090508360f81b81600081518110611add57fe5b60200101907effffffffffffffffffffffffffffffffffffffffffffffffffffffffffffff1916908160001a9053506060602067ffffffffffffffff81118015611b2657600080fd5b506040519080825280601f01601f191660200182016040528015611b595781602001600182028036833780820191505090505b5090506060602067ffffffffffffffff81118015611b7657600080fd5b506040519080825280601f01601f191660200182016040528015611ba95781602001600182028036833780820191505090505b5090506000611bb66129ba565b9050602083524241186001430340186020840152602082528060208301526060602067ffffffffffffffff81118015611bee57600080fd5b506040519080825280601f01601f191660200182016040528015611c215781602001600182028036833780820191505090505b5090508860208201526060600867ffffffffffffffff81118015611c4457600080fd5b506040519080825280601f01601f191660200182016040528015611c775781602001600182028036833780820191505090505b509050611c8a8260186008846000612cd5565b50611c93614922565b60405180608001604052808781526020018881526020018681526020018481525090506000611cf86040518060400160405280600681526020017f72616e646f6d0000000000000000000000000000000000000000000000000000815250838c612d34565b90506060600867ffffffffffffffff81118015611d1457600080fd5b506040519080825280601f01601f191660200182016040528015611d475781602001600182028036833780820191505090505b50905060208401517f0100000000000000000000000000000000000000000000000000000000000000810460278301537e01000000000000000000000000000000000000000000000000000000000000810460268301537d010000000000000000000000000000000000000000000000000000000000810460258301537c0100000000000000000000000000000000000000000000000000000000810460248301537b01000000000000000000000000000000000000000000000000000000810460238301537a01000000000000000000000000000000000000000000000000000081046022830153790100000000000000000000000000000000000000000000000000810460218301537801000000000000000000000000000000000000000000000000810460208301535061206d828285600160048110611e8657fe5b6020020151600287600060048110611e9a57fe5b60200201516040518082805190602001908083835b60208310611ed25780518252602082019150602081019050602083039250611eaf565b6001836020036101000a038019825116818451168082178552505050505050905001915050602060405180830381855afa158015611f14573d6000803e3d6000fd5b5050506040513d6020811015611f2957600080fd5b810190808051906020019092919050505087600260048110611f4757fe5b60200201516040516020018085805190602001908083835b60208310611f825780518252602082019150602081019050602083039250611f5f565b6001836020036101000a03801982511681845116808217855250505050505090500184805190602001908083835b60208310611fd35780518252602082019150602081019050602083039250611fb0565b6001836020036101000a03801982511681845116808217855250505050505090500183815260200182805190602001908083835b6020831061202a5780518252602082019150602081019050602083039250612007565b6001836020036101000a038019825116818451168082178552505050505050905001945050505050604051602081830303815290604052805190602001206130b7565b8199505050505050505050509392505050565b600060016006424144604051602001808481526020018373ffffffffffffffffffffffffffffffffffffffff1660601b815260140182815260200193505050506040516020818303038152906040528051906020012060001c816120e057fe5b0601905090565b60006120f683600001836130d3565b60001c905092915050565b6000612129836000018373ffffffffffffffffffffffffffffffffffffffff1660001b613156565b905092915050565b6000606f8190555060006070819055506000606b81905550565b61215582826111c2565b5050565b600061216782600001613179565b9050919050565b600081606a5410159050919050565b60006121a5836000018373ffffffffffffffffffffffffffffffffffffffff1660001b61318a565b905092915050565b60006121d5836000018373ffffffffffffffffffffffffffffffffffffffff1660001b6131fa565b905092915050565b6000813b9050919050565b60006121f26132e2565b9050919050565b606060028054600181600116156101000203166002900480601f0160208091040260200160405190810160405280929190818152602001828054600181600116156101000203166002900480156122915780601f1061226657610100808354040283529160200191612291565b820191906000526020600020905b81548152906001019060200180831161227457829003601f168201915b5050505050905090565b60008060206002876045815181106122af57fe5b602001015160f81c60f81b60f81c60ff16016044010190506060602067ffffffffffffffff811180156122e157600080fd5b506040519080825280601f01601f1916602001820160405280156123145781602001600182028036833780820191505090505b50905061232687836020846000612cd5565b50600284876040516020018083805190602001908083835b60208310612361578051825260208201915060208101905060208303925061233e565b6001836020036101000a038019825116818451168082178552505050505050905001828152602001925050506040516020818303038152906040526040518082805190602001908083835b602083106123cf57805182526020820191506020810190506020830392506123ac565b6001836020036101000a038019825116818451168082178552505050505050905001915050602060405180830381855afa158015612411573d6000803e3d6000fd5b5050506040513d602081101561242657600080fd5b81019080805190602001909291905050506040516020018082815260200191505060405160208183030381529060405280519060200120818051906020012014612475576000925050506129b2565b6060600288600160498601018151811061248b57fe5b602001015160f81c60f81b60f81c60ff160167ffffffffffffffff811180156124b357600080fd5b506040519080825280601f01601f1916602001820160405280156124e65781602001600182028036833780820191505090505b5090506124fb88604985018351846000612cd5565b506125c66002826040518082805190602001908083835b602083106125355780518252602082019150602081019050602083039250612512565b6001836020036101000a038019825116818451168082178552505050505050905001915050602060405180830381855afa158015612577573d6000803e3d6000fd5b5050506040513d602081101561258c57600080fd5b8101908080519060200190929190505050878a60086020880101815181106125b057fe5b602001015160f81c60f81b60f81c60ff16613839565b6125d657600093505050506129b2565b6060602967ffffffffffffffff811180156125f057600080fd5b506040519080825280601f01601f1916602001820160405280156126235781602001600182028036833780820191505090505b50905061263889602086016029846000612cd5565b506060604067ffffffffffffffff8111801561265357600080fd5b506040519080825280601f01601f1916602001820160405280156126865781602001600182028036833780820191505090505b50905060006041845160296020890101010190506126ac8b604083036040856000612cd5565b5060006002836040518082805190602001908083835b602083106126e557805182526020820191506020810190506020830392506126c2565b6001836020036101000a038019825116818451168082178552505050505050905001915050602060405180830381855afa158015612727573d6000803e3d6000fd5b5050506040513d602081101561273c57600080fd5b8101908080519060200190929190505050905083816040516020018083805190602001908083835b602083106127875780518252602082019150602081019050602083039250612764565b6001836020036101000a0380198251168184511680821785525050505050509050018281526020019250505060405160208183030381529060405280519060200120600360008d81526020019081526020016000205414156127ff57600360008c81526020019081526020016000206000905561280f565b60009750505050505050506129b2565b6060604967ffffffffffffffff8111801561282957600080fd5b506040519080825280601f01601f19166020018201604052801561285c5781602001600182028036833780820191505090505b50905061286e8d896049846000612cd5565b506129176002826040518082805190602001908083835b602083106128a85780518252602082019150602081019050602083039250612885565b6001836020036101000a038019825116818451168082178552505050505050905001915050602060405180830381855afa1580156128ea573d6000803e3d6000fd5b5050506040513d60208110156128ff57600080fd5b810190808051906020019092919050505087866138e6565b61292c576000985050505050505050506129b2565b6004600083815260200190815260200160002060009054906101000a900460ff166129865761295b8d84613ad2565b6004600084815260200190815260200160002060006101000a81548160ff0219169083151502179055505b6004600083815260200190815260200160002060009054906101000a900460ff16985050505050505050505b949350505050565b60008073ffffffffffffffffffffffffffffffffffffffff16600160009054906101000a900473ffffffffffffffffffffffffffffffffffffffff1673ffffffffffffffffffffffffffffffffffffffff161480612a4257506000612a40600160009054906101000a900473ffffffffffffffffffffffffffffffffffffffff166121dd565b145b15612a5357612a5160006121e8565b505b600160009054906101000a900473ffffffffffffffffffffffffffffffffffffffff1673ffffffffffffffffffffffffffffffffffffffff166338cc48316040518163ffffffff1660e01b8152600401602060405180830381600087803b158015612abd57600080fd5b505af1158015612ad1573d6000803e3d6000fd5b505050506040513d6020811015612ae757600080fd5b810190808051906020019092919050505073ffffffffffffffffffffffffffffffffffffffff1660008054906101000a900473ffffffffffffffffffffffffffffffffffffffff1673ffffffffffffffffffffffffffffffffffffffff1614612c2f57600160009054906101000a900473ffffffffffffffffffffffffffffffffffffffff1673ffffffffffffffffffffffffffffffffffffffff166338cc48316040518163ffffffff1660e01b8152600401602060405180830381600087803b158015612bb457600080fd5b505af1158015612bc8573d6000803e3d6000fd5b505050506040513d6020811015612bde57600080fd5b81019080805190602001909291905050506000806101000a81548173ffffffffffffffffffffffffffffffffffffffff021916908373ffffffffffffffffffffffffffffffffffffffff1602179055505b60008054906101000a900473ffffffffffffffffffffffffffffffffffffffff1673ffffffffffffffffffffffffffffffffffffffff1663abaa5f3e6040518163ffffffff1660e01b815260040160206040518083038186803b158015612c9557600080fd5b505afa158015612ca9573d6000803e3d6000fd5b505050506040513d6020811015612cbf57600080fd5b8101908080519060200190929190505050905090565b6060600082850190508084511015612cec57600080fd5b600086602001905060008460200190505b868860200101821015612d255781890151808288015250602082019150602081019050612cfd565b85935050505095945050505050565b60008073ffffffffffffffffffffffffffffffffffffffff16600160009054906101000a900473ffffffffffffffffffffffffffffffffffffffff1673ffffffffffffffffffffffffffffffffffffffff161480612dbc57506000612dba600160009054906101000a900473ffffffffffffffffffffffffffffffffffffffff166121dd565b145b15612dcd57612dcb60006121e8565b505b600160009054906101000a900473ffffffffffffffffffffffffffffffffffffffff1673ffffffffffffffffffffffffffffffffffffffff166338cc48316040518163ffffffff1660e01b8152600401602060405180830381600087803b158015612e3757600080fd5b505af1158015612e4b573d6000803e3d6000fd5b505050506040513d6020811015612e6157600080fd5b810190808051906020019092919050505073ffffffffffffffffffffffffffffffffffffffff1660008054906101000a900473ffffffffffffffffffffffffffffffffffffffff1673ffffffffffffffffffffffffffffffffffffffff1614612fa957600160009054906101000a900473ffffffffffffffffffffffffffffffffffffffff1673ffffffffffffffffffffffffffffffffffffffff166338cc48316040518163ffffffff1660e01b8152600401602060405180830381600087803b158015612f2e57600080fd5b505af1158015612f42573d6000803e3d6000fd5b505050506040513d6020811015612f5857600080fd5b81019080805190602001909291905050506000806101000a81548173ffffffffffffffffffffffffffffffffffffffff021916908373ffffffffffffffffffffffffffffffffffffffff1602179055505b6060600467ffffffffffffffff81118015612fc357600080fd5b50604051908082528060200260200182016040528015612ff757816020015b6060815260200190600190039081612fe25790505b5090508360006004811061300757fe5b60200201518160008151811061301957fe5b60200260200101819052508360016004811061303157fe5b60200201518160018151811061304357fe5b60200260200101819052508360026004811061305b57fe5b60200201518160028151811061306d57fe5b60200260200101819052508360036004811061308557fe5b60200201518160038151811061309757fe5b60200260200101819052506130ad858285613f5e565b9150509392505050565b8060036000848152602001908152602001600020819055505050565b600081836000018054905011613134576040517f08c379a0000000000000000000000000000000000000000000000000000000008152600401808060200182810382526022815260200180614a016022913960400191505060405180910390fd5b82600001828154811061314357fe5b9060005260206000200154905092915050565b600080836001016000848152602001908152602001600020541415905092915050565b600081600001805490509050919050565b60006131968383613156565b6131ef5782600001829080600181540180825580915050600190039060005260206000200160009091909190915055826000018054905083600101600084815260200190815260200160002081905550600190506131f4565b600090505b92915050565b600080836001016000848152602001908152602001600020549050600081146132d6576000600182039050600060018660000180549050039050600086600001828154811061324557fe5b906000526020600020015490508087600001848154811061326257fe5b906000526020600020018190555060018301876001016000838152602001908152602001600020819055508660000180548061329a57fe5b600190038181906000526020600020016000905590558660010160008781526020019081526020016000206000905560019450505050506132dc565b60009150505b92915050565b600080613302731d3b2638a7cc9f2cb3d298a3da7a90b67e5506ed6121dd565b11156133a457731d3b2638a7cc9f2cb3d298a3da7a90b67e5506ed600160006101000a81548173ffffffffffffffffffffffffffffffffffffffff021916908373ffffffffffffffffffffffffffffffffffffffff16021790555061339b6040518060400160405280600b81526020017f6574685f6d61696e6e65740000000000000000000000000000000000000000008152506144be565b60019050613836565b60006133c373c03a2615d5efaf5f49f60b7bb6583eaec212fdf16121dd565b11156134655773c03a2615d5efaf5f49f60b7bb6583eaec212fdf1600160006101000a81548173ffffffffffffffffffffffffffffffffffffffff021916908373ffffffffffffffffffffffffffffffffffffffff16021790555061345c6040518060400160405280600c81526020017f6574685f726f707374656e3300000000000000000000000000000000000000008152506144be565b60019050613836565b600061348473b7a07bcf2ba2f2703b24c0691b5278999c59ac7e6121dd565b11156135265773b7a07bcf2ba2f2703b24c0691b5278999c59ac7e600160006101000a81548173ffffffffffffffffffffffffffffffffffffffff021916908373ffffffffffffffffffffffffffffffffffffffff16021790555061351d6040518060400160405280600981526020017f6574685f6b6f76616e00000000000000000000000000000000000000000000008152506144be565b60019050613836565b600061354573146500cfd35b22e4a392fe0adc06de1a1368ed486121dd565b11156135e75773146500cfd35b22e4a392fe0adc06de1a1368ed48600160006101000a81548173ffffffffffffffffffffffffffffffffffffffff021916908373ffffffffffffffffffffffffffffffffffffffff1602179055506135de6040518060400160405280600b81526020017f6574685f72696e6b6562790000000000000000000000000000000000000000008152506144be565b60019050613836565b600061360673a2998efd205fb9d4b4963afb70778d6354ad3a416121dd565b11156136a85773a2998efd205fb9d4b4963afb70778d6354ad3a41600160006101000a81548173ffffffffffffffffffffffffffffffffffffffff021916908373ffffffffffffffffffffffffffffffffffffffff16021790555061369f6040518060400160405280600a81526020017f6574685f676f65726c69000000000000000000000000000000000000000000008152506144be565b60019050613836565b60006136c7736f485c8bf6fc43ea212e93bbf8ce046c7f1cb4756121dd565b111561372b57736f485c8bf6fc43ea212e93bbf8ce046c7f1cb475600160006101000a81548173ffffffffffffffffffffffffffffffffffffffff021916908373ffffffffffffffffffffffffffffffffffffffff16021790555060019050613836565b600061374a7320e12a1f859b3feae5fb2a0a32c18f5a65555bbf6121dd565b11156137ae577320e12a1f859b3feae5fb2a0a32c18f5a65555bbf600160006101000a81548173ffffffffffffffffffffffffffffffffffffffff021916908373ffffffffffffffffffffffffffffffffffffffff16021790555060019050613836565b60006137cd7351efaf4c8b3c9afbd5ab9f4bbc82784ab6ef8faa6121dd565b1115613831577351efaf4c8b3c9afbd5ab9f4bbc82784ab6ef8faa600160006101000a81548173ffffffffffffffffffffffffffffffffffffffff021916908373ffffffffffffffffffffffffffffffffffffffff16021790555060019050613836565b600090505b90565b600080600190508284511461384d57600080fd5b60005b838110156138da5784818151811061386457fe5b602001015160f81c60f81b7effffffffffffffffffffffffffffffffffffffffffffffffffffffffffffff191686826020811061389d57fe5b1a60f81b7effffffffffffffffffffffffffffffffffffffffffffffffffffffffffffff1916146138cd57600091505b8080600101915050613850565b50809150509392505050565b60008060008060006060602067ffffffffffffffff8111801561390857600080fd5b506040519080825280601f01601f19166020018201604052801561393b5781602001600182028036833780820191505090505b509050600060208960038151811061394f57fe5b602001015160f81c60f81b60f81c60ff1603600401905061397589826020856000612cd5565b91506060602067ffffffffffffffff8111801561399157600080fd5b506040519080825280601f01601f1916602001820160405280156139c45781602001600182028036833780820191505090505b509050602282019150613a008a60208c60018603815181106139e257fe5b602001015160f81c60f81b60f81c60ff160384016020846000612cd5565b90506020830151945060208101519350613a1d8b601b87876144d8565b80975081985050508573ffffffffffffffffffffffffffffffffffffffff16898051906020012060001c73ffffffffffffffffffffffffffffffffffffffff161415613a73576001975050505050505050613acb565b613a808b601c87876144d8565b80975081985050508573ffffffffffffffffffffffffffffffffffffffff16898051906020012060001c73ffffffffffffffffffffffffffffffffffffffff16149750505050505050505b9392505050565b60008060606002856001860181518110613ae857fe5b602001015160f81c60f81b60f81c60ff160167ffffffffffffffff81118015613b1057600080fd5b506040519080825280601f01601f191660200182016040528015613b435781602001600182028036833780820191505090505b509050613b5585858351846000612cd5565b506060604067ffffffffffffffff81118015613b7057600080fd5b506040519080825280601f01601f191660200182016040528015613ba35781602001600182028036833780820191505090505b509050613bb68660046040846000612cd5565b506060606267ffffffffffffffff81118015613bd157600080fd5b506040519080825280601f01601f191660200182016040528015613c045781602001600182028036833780820191505090505b509050600160f81b81600081518110613c1957fe5b60200101907effffffffffffffffffffffffffffffffffffffffffffffffffffffffffffff1916908160001a905350613c5a87604188036041846001612cd5565b5060606040518060400160405280602081526020017ffd94fa71bc0ba10d39d464d0d8f465efeef0a2764e3887fcc9df41ded20f505c8152509050613ca58160006020856042612cd5565b50613d4e6002836040518082805190602001908083835b60208310613cdf5780518252602082019150602081019050602083039250613cbc565b6001836020036101000a038019825116818451168082178552505050505050905001915050602060405180830381855afa158015613d21573d6000803e3d6000fd5b5050506040513d6020811015613d3657600080fd5b810190808051906020019092919050505085856138e6565b945084613d6357600095505050505050613f58565b6060604051806060016040528060408152602001614a826040913990506060604267ffffffffffffffff81118015613d9a57600080fd5b506040519080825280601f01601f191660200182016040528015613dcd5781602001600182028036833780820191505090505b50905060fe60f81b81600081518110613de257fe5b60200101907effffffffffffffffffffffffffffffffffffffffffffffffffffffffffffff1916908160001a905350613e218a60036041846001612cd5565b50606060028b604581518110613e3357fe5b602001015160f81c60f81b60f81c60ff160167ffffffffffffffff81118015613e5b57600080fd5b506040519080825280601f01601f191660200182016040528015613e8e5781602001600182028036833780820191505090505b509050613ea18b60448351846000612cd5565b50613f4a6002836040518082805190602001908083835b60208310613edb5780518252602082019150602081019050602083039250613eb8565b6001836020036101000a038019825116818451168082178552505050505050905001915050602060405180830381855afa158015613f1d573d6000803e3d6000fd5b5050506040513d6020811015613f3257600080fd5b810190808051906020019092919050505082856138e6565b975087985050505050505050505b92915050565b60008073ffffffffffffffffffffffffffffffffffffffff16600160009054906101000a900473ffffffffffffffffffffffffffffffffffffffff1673ffffffffffffffffffffffffffffffffffffffff161480613fe657506000613fe4600160009054906101000a900473ffffffffffffffffffffffffffffffffffffffff166121dd565b145b15613ff757613ff560006121e8565b505b600160009054906101000a900473ffffffffffffffffffffffffffffffffffffffff1673ffffffffffffffffffffffffffffffffffffffff166338cc48316040518163ffffffff1660e01b8152600401602060405180830381600087803b15801561406157600080fd5b505af1158015614075573d6000803e3d6000fd5b505050506040513d602081101561408b57600080fd5b810190808051906020019092919050505073ffffffffffffffffffffffffffffffffffffffff1660008054906101000a900473ffffffffffffffffffffffffffffffffffffffff1673ffffffffffffffffffffffffffffffffffffffff16146141d357600160009054906101000a900473ffffffffffffffffffffffffffffffffffffffff1673ffffffffffffffffffffffffffffffffffffffff166338cc48316040518163ffffffff1660e01b8152600401602060405180830381600087803b15801561415857600080fd5b505af115801561416c573d6000803e3d6000fd5b505050506040513d602081101561418257600080fd5b81019080805190602001909291905050506000806101000a81548173ffffffffffffffffffffffffffffffffffffffff021916908373ffffffffffffffffffffffffffffffffffffffff1602179055505b60008060009054906101000a900473ffffffffffffffffffffffffffffffffffffffff1673ffffffffffffffffffffffffffffffffffffffff16632ef3accc86856040518363ffffffff1660e01b81526004018080602001838152602001828103825284818151815260200191508051906020019080838360005b8381101561426957808201518184015260208101905061424e565b50505050905090810190601f1680156142965780820380516001836020036101000a031916815260200191505b509350505050602060405180830381600087803b1580156142b657600080fd5b505af11580156142ca573d6000803e3d6000fd5b505050506040513d60208110156142e057600080fd5b81019080805190602001909291905050509050823a02670de0b6b3a764000001811115614313576000801b9150506144b7565b606061431e8561451c565b905060008054906101000a900473ffffffffffffffffffffffffffffffffffffffff1673ffffffffffffffffffffffffffffffffffffffff1663c55c1cb68360008985896040518663ffffffff1660e01b8152600401808581526020018060200180602001848152602001838103835286818151815260200191508051906020019080838360005b838110156143c15780820151818401526020810190506143a6565b50505050905090810190601f1680156143ee5780820380516001836020036101000a031916815260200191505b50838103825285818151815260200191508051906020019080838360005b8381101561442757808201518184015260208101905061440c565b50505050905090810190601f1680156144545780820380516001836020036101000a031916815260200191505b5096505050505050506020604051808303818588803b15801561447657600080fd5b505af115801561448a573d6000803e3d6000fd5b50505050506040513d60208110156144a157600080fd5b8101908080519060200190929190505050925050505b9392505050565b80600290805190602001906144d4929190614949565b5050565b60008060008060405188815287602082015286604082015285606082015260208160808360006001610bb8f192508051915050818193509350505094509492505050565b6060614526614599565b61452e6149c9565b61453a816104006145a5565b614543816145ef565b60005b83518110156145825761457584828151811061455e57fe5b6020026020010151836145fd90919063ffffffff16565b8080600101915050614546565b5061458c81614622565b8060000151915050919050565b60405180590338823950565b60008190506000602082816145b657fe5b06146145cf57602081816145c657fe5b06602003810190505b808360200181815250506040518084526000815281810160405250505050565b6145fa816004614630565b50565b61460a8260028351614651565b61461d818361479190919063ffffffff16565b505050565b61462d816007614630565b50565b61464d601f60058360ff16901b178361483c90919063ffffffff16565b5050565b6017811161467d576146788160058460ff16901b60ff16178461483c90919063ffffffff16565b61478c565b60ff81116146be576146a2601860058460ff16901b178461483c90919063ffffffff16565b6146b88160018561487c9092919063ffffffff16565b5061478b565b61ffff8111614700576146e4601960058460ff16901b178461483c90919063ffffffff16565b6146fa8160028561487c9092919063ffffffff16565b5061478a565b63ffffffff811161474457614728601a60058460ff16901b178461483c90919063ffffffff16565b61473e8160048561487c9092919063ffffffff16565b50614789565b67ffffffffffffffff811161478857614770601b60058460ff16901b178461483c90919063ffffffff16565b6147868160088561487c9092919063ffffffff16565b505b5b5b5b5b505050565b6147996149c9565b826020015183600001515183510111156147c9576147c88360026147c2866020015186516148e3565b026148ff565b5b60008060008451905085518051602081830101945086518101825260208701935050505b6020811061481057815183526020830192506020820191506020810390506147ed565b60006001826020036101000a039050801983511681855116818117865250508694505050505092915050565b81602001516001836000015151011115614862576148618260028460200151026148ff565b5b815180516020818301018381536001820183525050505050565b6148846149c9565b8360200151846000015151830111156148b2576148b18460026148ab8760200151866148e3565b026148ff565b5b60006001836101000a0390508451805184818301018684198251161781528582018352505050849150509392505050565b6000818311156148f5578290506148f9565b8190505b92915050565b60608260000151905061491283836145a5565b61491c8382614791565b50505050565b60405180608001604052806004905b60608152602001906001900390816149315790505090565b828054600181600116156101000203166002900490600052602060002090601f016020900481019282601f1061498a57805160ff19168380011785556149b8565b828001600101855582156149b8579182015b828111156149b757825182559160200191906001019061499c565b5b5090506149c591906149e3565b5090565b604051806040016040528060608152602001600081525090565b5b808211156149fc5760008160009055506001016149e4565b509056fe456e756d657261626c655365743a20696e646578206f7574206f6620626f756e6473416363657373436f6e74726f6c3a2073656e646572206d75737420626520616e2061646d696e20746f206772616e74416363657373436f6e74726f6c3a2073656e646572206d75737420626520616e2061646d696e20746f207265766f6b657fb956469c5c9b89840d55b43537e66a98dd4811ea0a27224272c2e5622911e8537a2f8e86a46baec82864e98dd01e9ccc2f8bc5dfc9cbe5a91a290498dd96e4416363657373436f6e74726f6c3a2063616e206f6e6c792072656e6f756e636520726f6c657320666f722073656c66a264697066735822122086cf4e2fb2522422c32c5ec7a17195349ec82bdba81f3d564d07aad966476fca64736f6c634300060c0033",
  "immutableReferences": {},
  "source": "pragma solidity ^0.6.0;\nimport \"./provableAPI.sol\";\nimport \"@openzeppelin/contracts-upgradeable/access/AccessControlUpgradeable.sol\";\n\ncontract DealerV4 is  usingProvable, AccessControlUpgradeable {\n    uint256 public dealerBalance;\n    uint256 bet;\n    uint256 playedGames;\n    address player;\n    bytes32 public constant ADMIN_ROLE = keccak256(\"ADMIN_ROLE\");\n\n    function initialize(address admin) public  {\n        dealerBalance = 10;\n        player = msg.sender;\n        _setupRole(ADMIN_ROLE, admin);\n    }\n\n    fallback() external payable {}\n\n    receive() external payable {}\n\n    event PlayerWins(address player, uint256 profit, uint256 dealerBalance);\n\n    mapping(address => PlayerData) public playerList;\n\n    struct PlayerData {\n        address playerAddress;\n        uint256 playedGames;\n    }\n\n    modifier onlyPlayer() {\n        require(msg.sender == player);\n        _;\n    }\n\n    function addBet(uint256 _bet) public onlyPlayer {\n        require(checkIfBalanceIsEnough(_bet));\n        dealerBalance += _bet;\n        playedGames += 1;\n        playerList[msg.sender] = PlayerData(msg.sender, playedGames);\n    }\n\n    function addBet2(uint256 _bet) public onlyPlayer {\n        require(checkIfBalanceIsEnough(_bet));\n        dealerBalance += _bet * 2;\n    }\n\n    function returnBetWithProfit() public {\n        dealerBalance -= bet * 2;\n    }\n\n    function showBalance() public view returns (uint256) {\n        return dealerBalance;\n    }\n\n    function checkIfBalanceIsEnough(uint256 _bet) private view returns (bool) {\n        return dealerBalance >= _bet;\n    }\n}\n\ncontract PolarBetV4 is DealerV4 {\n    uint256 dealerDiceResult;\n    uint256 userDiceResult;\n    bytes32 public queryId;\n\n    // constructor() public {\n    //     provable_setProof(proofType_Ledger);\n    // }\n\n    function initialize2() public  {\n        provable_setProof(proofType_Ledger);\n    }\n\n    function __callback(\n        bytes32 _queryId,\n        string memory _result,\n        bytes memory _proof\n    ) public override {\n        require(msg.sender == provable_cbAddress());\n        if (\n            provable_randomDS_proofVerify__returnCode(\n                _queryId,\n                _result,\n                _proof\n            ) == 0\n        )\n            userDiceResult =\n                uint8(uint256(keccak256(abi.encodePacked(_result))) % 5) +\n                1;\n        else revert(\"error message\");\n    }\n\n    function getRandom(uint8 nrBytes) public payable {\n        // not supported in remix\n        queryId = provable_newRandomDSQuery(\n            0, // QUERY_EXECUTION_DELAY\n            nrBytes, // NUM_RANDOM_BYTES_REQUESTED\n            200000 // GAS_FOR_CALLBACK\n        );\n    }\n\n    function getRandomNumber() private view returns (uint8) {\n        return\n            uint8(\n                uint256(\n                    keccak256(\n                        abi.encodePacked(\n                            block.timestamp,\n                            block.coinbase,\n                            block.difficulty\n                        )\n                    )\n                ) % 6\n            ) + 1;\n    }\n\n    function rollDice() public payable {\n        dealerDiceResult = getRandomNumber();\n        getRandom(1);\n    }\n\n    function getDiceResultOfDealer() public view returns (uint256) {\n        return dealerDiceResult;\n    }\n\n    function getDiceResultOfUser() public view returns (uint256) {\n        return userDiceResult;\n    }\n\n    function payOut() public {\n        require(hasRole(ADMIN_ROLE, msg.sender), \"Caller is not an admin\");\n        if (dealerDiceResult < userDiceResult) {\n            returnBetWithProfit();\n            emit PlayerWins(player, bet, dealerBalance);\n        }\n        resetBetAndDiceResults();\n    }\n\n    function resetBetAndDiceResults() private {\n        dealerDiceResult = 0;\n        userDiceResult = 0;\n        bet = 0;\n    }\n}\n",
  "sourcePath": "/Users/rowin/Documents/projects/Koios/polarbet/contracts/PolarBetV4.sol",
  "compiler": {
    "name": "solc",
    "version": "0.6.12+commit.27d51765.Emscripten.clang"
  },
  "schemaVersion": "3.3.3",
  "updatedAt": "2021-01-20T16:29:46.464Z",
  "devdoc": {
    "kind": "dev",
    "methods": {
      "__callback(bytes32,string)": {
        "details": "The following `__callback` functions are just placeholders ideally      meant to be defined in child contract when proofs are used.      The function bodies simply silence compiler warnings."
      },
      "getRoleAdmin(bytes32)": {
        "details": "Returns the admin role that controls `role`. See {grantRole} and {revokeRole}. To change a role's admin, use {_setRoleAdmin}."
      },
      "getRoleMember(bytes32,uint256)": {
        "details": "Returns one of the accounts that have `role`. `index` must be a value between 0 and {getRoleMemberCount}, non-inclusive. Role bearers are not sorted in any particular way, and their ordering may change at any point. WARNING: When using {getRoleMember} and {getRoleMemberCount}, make sure you perform all queries on the same block. See the following https://forum.openzeppelin.com/t/iterating-over-elements-on-enumerableset-in-openzeppelin-contracts/2296[forum post] for more information."
      },
      "getRoleMemberCount(bytes32)": {
        "details": "Returns the number of accounts that have `role`. Can be used together with {getRoleMember} to enumerate all bearers of a role."
      },
      "grantRole(bytes32,address)": {
        "details": "Grants `role` to `account`. If `account` had not been already granted `role`, emits a {RoleGranted} event. Requirements: - the caller must have ``role``'s admin role."
      },
      "hasRole(bytes32,address)": {
        "details": "Returns `true` if `account` has been granted `role`."
      },
      "renounceRole(bytes32,address)": {
        "details": "Revokes `role` from the calling account. Roles are often managed via {grantRole} and {revokeRole}: this function's purpose is to provide a mechanism for accounts to lose their privileges if they are compromised (such as when a trusted device is misplaced). If the calling account had been granted `role`, emits a {RoleRevoked} event. Requirements: - the caller must be `account`."
      },
      "revokeRole(bytes32,address)": {
        "details": "Revokes `role` from `account`. If `account` had been granted `role`, emits a {RoleRevoked} event. Requirements: - the caller must have ``role``'s admin role."
      }
    },
    "version": 1
  },
  "userdoc": {
    "kind": "user",
    "methods": {},
    "version": 1
  }
}